{
  "contractName": "TodoList",
  "abi": [
    {
      "inputs": [
        {
          "internalType": "string",
          "name": "_task",
          "type": "string"
        }
      ],
      "name": "addTask",
      "outputs": [],
      "stateMutability": "nonpayable",
      "type": "function"
    },
    {
      "inputs": [
        {
          "internalType": "uint256",
          "name": "_taskIndex",
          "type": "uint256"
        }
      ],
      "name": "getTask",
      "outputs": [
        {
          "components": [
            {
              "internalType": "string",
              "name": "task",
              "type": "string"
            },
            {
              "internalType": "bool",
              "name": "isDone",
              "type": "bool"
            }
          ],
          "internalType": "struct TodoList.Task",
          "name": "",
          "type": "tuple"
        }
      ],
      "stateMutability": "view",
      "type": "function",
      "constant": true
    },
    {
      "inputs": [
        {
          "internalType": "uint256",
          "name": "_taskIndex",
          "type": "uint256"
        },
        {
          "internalType": "bool",
          "name": "_status",
          "type": "bool"
        }
      ],
      "name": "updateStatus",
      "outputs": [],
      "stateMutability": "nonpayable",
      "type": "function"
    },
    {
      "inputs": [
        {
          "internalType": "uint256",
          "name": "_taskIndex",
          "type": "uint256"
        }
      ],
      "name": "deleteTask",
      "outputs": [],
      "stateMutability": "nonpayable",
      "type": "function"
    },
    {
      "inputs": [],
      "name": "getTaskCount",
      "outputs": [
        {
          "internalType": "uint256",
          "name": "",
          "type": "uint256"
        }
      ],
      "stateMutability": "view",
      "type": "function",
      "constant": true
    }
  ],
  "bytecode": "0x608060405234801561001057600080fd5b5061090a806100206000396000f3fe608060405234801561001057600080fd5b50600436106100575760003560e01c80631d65e77e1461005c578063387008c21461008c578063560f3192146100a857806367238562146100c4578063c17a340e146100e0575b600080fd5b61007660048036038101906100719190610649565b6100fe565b604051610083919061074a565b60405180910390f35b6100a660048036038101906100a19190610676565b610229565b005b6100c260048036038101906100bd9190610649565b6102a6565b005b6100de60048036038101906100d991906105fc565b61032e565b005b6100e8610434565b6040516100f5919061076c565b60405180910390f35b61010661047d565b60008060003373ffffffffffffffffffffffffffffffffffffffff1673ffffffffffffffffffffffffffffffffffffffff16815260200190815260200160002083815481106101585761015761084d565b5b9060005260206000209060020201905080604051806040016040529081600082018054610184906107ec565b80601f01602080910402602001604051908101604052809291908181526020018280546101b0906107ec565b80156101fd5780601f106101d2576101008083540402835291602001916101fd565b820191906000526020600020905b8154815290600101906020018083116101e057829003601f168201915b505050505081526020016001820160009054906101000a900460ff161515151581525050915050919050565b806000803373ffffffffffffffffffffffffffffffffffffffff1673ffffffffffffffffffffffffffffffffffffffff168152602001908152602001600020838154811061027a5761027961084d565b5b906000526020600020906002020160010160006101000a81548160ff0219169083151502179055505050565b6000803373ffffffffffffffffffffffffffffffffffffffff1673ffffffffffffffffffffffffffffffffffffffff16815260200190815260200160002081815481106102f6576102f561084d565b5b9060005260206000209060020201600080820160006103159190610499565b6001820160006101000a81549060ff0219169055505050565b6000803373ffffffffffffffffffffffffffffffffffffffff1673ffffffffffffffffffffffffffffffffffffffff168152602001908152602001600020604051806040016040528084848080601f016020809104026020016040519081016040528093929190818152602001838380828437600081840152601f19601f820116905080830192505050505050508152602001600015158152509080600181540180825580915050600190039060005260206000209060020201600090919091909150600082015181600001908051906020019061040d9291906104d9565b5060208201518160010160006101000a81548160ff02191690831515021790555050505050565b60008060003373ffffffffffffffffffffffffffffffffffffffff1673ffffffffffffffffffffffffffffffffffffffff16815260200190815260200160002080549050905090565b6040518060400160405280606081526020016000151581525090565b5080546104a5906107ec565b6000825580601f106104b757506104d6565b601f0160209004906000526020600020908101906104d5919061055f565b5b50565b8280546104e5906107ec565b90600052602060002090601f016020900481019282610507576000855561054e565b82601f1061052057805160ff191683800117855561054e565b8280016001018555821561054e579182015b8281111561054d578251825591602001919060010190610532565b5b50905061055b919061055f565b5090565b5b80821115610578576000816000905550600101610560565b5090565b60008135905061058b816108a6565b92915050565b60008083601f8401126105a7576105a6610881565b5b8235905067ffffffffffffffff8111156105c4576105c361087c565b5b6020830191508360018202830111156105e0576105df610886565b5b9250929050565b6000813590506105f6816108bd565b92915050565b6000806020838503121561061357610612610890565b5b600083013567ffffffffffffffff8111156106315761063061088b565b5b61063d85828601610591565b92509250509250929050565b60006020828403121561065f5761065e610890565b5b600061066d848285016105e7565b91505092915050565b6000806040838503121561068d5761068c610890565b5b600061069b858286016105e7565b92505060206106ac8582860161057c565b9150509250929050565b6106bf816107a3565b82525050565b60006106d082610787565b6106da8185610792565b93506106ea8185602086016107b9565b6106f381610895565b840191505092915050565b6000604083016000830151848203600086015261071b82826106c5565b915050602083015161073060208601826106b6565b508091505092915050565b610744816107af565b82525050565b6000602082019050818103600083015261076481846106fe565b905092915050565b6000602082019050610781600083018461073b565b92915050565b600081519050919050565b600082825260208201905092915050565b60008115159050919050565b6000819050919050565b60005b838110156107d75780820151818401526020810190506107bc565b838111156107e6576000848401525b50505050565b6000600282049050600182168061080457607f821691505b602082108114156108185761081761081e565b5b50919050565b7f4e487b7100000000000000000000000000000000000000000000000000000000600052602260045260246000fd5b7f4e487b7100000000000000000000000000000000000000000000000000000000600052603260045260246000fd5b600080fd5b600080fd5b600080fd5b600080fd5b600080fd5b6000601f19601f8301169050919050565b6108af816107a3565b81146108ba57600080fd5b50565b6108c6816107af565b81146108d157600080fd5b5056fea264697066735822122077edb34fa6715e8c28ef5d7cbf4a19e12632a05aedcbfc657205e99fc1a6954a64736f6c63430008070033",
  "immutableReferences": {},
  "source": "pragma solidity >=0.4.22 <0.9.0;\n\ncontract TodoList {\n  struct Task\n{\n  string task;\n  bool isDone;\n}\n \nmapping (address => Task[]) private Users;\n      \n// Defining function to add  a task\nfunction addTask(string calldata _task) external\n{\n  Users[msg.sender].push(Task({\n    task:_task,\n    isDone:false\n    }));\n}\n \n// Defining a function to get details of a task \nfunction getTask(uint _taskIndex) external view returns (Task memory)\n{\n  Task storage task = Users[msg.sender][_taskIndex];\n  return task;\n}\n\n   \n// Defining a function to update status of a task\nfunction updateStatus(uint256 _taskIndex,bool _status) external\n{\n  Users[msg.sender][_taskIndex].isDone = _status;\n}\n   \n// Defining a function to delete a task\nfunction deleteTask(uint256 _taskIndex) external\n{\n  delete Users[msg.sender][_taskIndex];\n}\n   \n// Defining a function to get task count.\nfunction getTaskCount() external view returns (uint256)\n{\n  return Users[msg.sender].length;\n} \n\n}",
  "sourcePath": "/Users/alitanveer/Desktop/ReactNative/appName/contracts/TodoList.sol",
  "compiler": {
    "name": "solc",
    "version": "0.8.7+commit.e28d00a7.Emscripten.clang"
  },
  "schemaVersion": "3.4.3",
  "updatedAt": "2021-09-01T13:26:25.168Z",
  "networkType": "ethereum",
  "devdoc": {
    "kind": "dev",
    "methods": {},
    "version": 1
  },
  "userdoc": {
    "kind": "user",
    "methods": {},
    "version": 1
  }
}