{
  "contractName": "TokenSwap",
  "abi": [
    {
      "inputs": [
        {
          "internalType": "address",
          "name": "_token1",
          "type": "address"
        },
        {
          "internalType": "address",
          "name": "_owner1",
          "type": "address"
        },
        {
          "internalType": "uint256",
          "name": "_amount1",
          "type": "uint256"
        },
        {
          "internalType": "address",
          "name": "_token2",
          "type": "address"
        },
        {
          "internalType": "address",
          "name": "_owner2",
          "type": "address"
        },
        {
          "internalType": "uint256",
          "name": "_amount2",
          "type": "uint256"
        }
      ],
      "stateMutability": "nonpayable",
      "type": "constructor"
    },
    {
      "inputs": [],
      "name": "amount1",
      "outputs": [
        {
          "internalType": "uint256",
          "name": "",
          "type": "uint256"
        }
      ],
      "stateMutability": "view",
      "type": "function"
    },
    {
      "inputs": [],
      "name": "amount2",
      "outputs": [
        {
          "internalType": "uint256",
          "name": "",
          "type": "uint256"
        }
      ],
      "stateMutability": "view",
      "type": "function"
    },
    {
      "inputs": [],
      "name": "owner1",
      "outputs": [
        {
          "internalType": "address",
          "name": "",
          "type": "address"
        }
      ],
      "stateMutability": "view",
      "type": "function"
    },
    {
      "inputs": [],
      "name": "owner2",
      "outputs": [
        {
          "internalType": "address",
          "name": "",
          "type": "address"
        }
      ],
      "stateMutability": "view",
      "type": "function"
    },
    {
      "inputs": [],
      "name": "token1",
      "outputs": [
        {
          "internalType": "contract IERC20",
          "name": "",
          "type": "address"
        }
      ],
      "stateMutability": "view",
      "type": "function"
    },
    {
      "inputs": [],
      "name": "token2",
      "outputs": [
        {
          "internalType": "contract IERC20",
          "name": "",
          "type": "address"
        }
      ],
      "stateMutability": "view",
      "type": "function"
    },
    {
      "inputs": [],
      "name": "swap",
      "outputs": [],
      "stateMutability": "nonpayable",
      "type": "function"
    }
  ],
  "bytecode": "0x60806040523480156200001157600080fd5b5060405162000d5f38038062000d5f833981810160405281019062000037919062000182565b856000806101000a81548173ffffffffffffffffffffffffffffffffffffffff021916908373ffffffffffffffffffffffffffffffffffffffff16021790555084600160006101000a81548173ffffffffffffffffffffffffffffffffffffffff021916908373ffffffffffffffffffffffffffffffffffffffff1602179055508360028190555082600360006101000a81548173ffffffffffffffffffffffffffffffffffffffff021916908373ffffffffffffffffffffffffffffffffffffffff16021790555081600460006101000a81548173ffffffffffffffffffffffffffffffffffffffff021916908373ffffffffffffffffffffffffffffffffffffffff1602179055508060058190555050505050505062000295565b600081519050620001658162000261565b92915050565b6000815190506200017c816200027b565b92915050565b60008060008060008060c08789031215620001a257620001a16200025c565b5b6000620001b289828a0162000154565b9650506020620001c589828a0162000154565b9550506040620001d889828a016200016b565b9450506060620001eb89828a0162000154565b9350506080620001fe89828a0162000154565b92505060a06200021189828a016200016b565b9150509295509295509295565b60006200022b8262000232565b9050919050565b600073ffffffffffffffffffffffffffffffffffffffff82169050919050565b6000819050919050565b600080fd5b6200026c816200021e565b81146200027857600080fd5b50565b620002868162000252565b81146200029257600080fd5b50565b610aba80620002a56000396000f3fe608060405234801561001057600080fd5b506004361061007d5760003560e01c8063736889141161005b57806373688914146100dc5780638119c065146100fa578063d21220a714610104578063f400fde4146101225761007d565b8063057bfcc71461008257806325be124e146100a057806352709725146100be575b600080fd5b61008a610140565b6040516100979190610903565b60405180910390f35b6100a8610146565b6040516100b59190610868565b60405180910390f35b6100c661016c565b6040516100d391906107ed565b60405180910390f35b6100e4610192565b6040516100f191906107ed565b60405180910390f35b6101026101b8565b005b61010c6105ac565b6040516101199190610868565b60405180910390f35b61012a6105d0565b6040516101379190610903565b60405180910390f35b60055481565b600360009054906101000a900473ffffffffffffffffffffffffffffffffffffffff1681565b600460009054906101000a900473ffffffffffffffffffffffffffffffffffffffff1681565b600160009054906101000a900473ffffffffffffffffffffffffffffffffffffffff1681565b600160009054906101000a900473ffffffffffffffffffffffffffffffffffffffff1673ffffffffffffffffffffffffffffffffffffffff163373ffffffffffffffffffffffffffffffffffffffff1614806102615750600460009054906101000a900473ffffffffffffffffffffffffffffffffffffffff1673ffffffffffffffffffffffffffffffffffffffff163373ffffffffffffffffffffffffffffffffffffffff16145b6102a0576040517f08c379a0000000000000000000000000000000000000000000000000000000008152600401610297906108e3565b60405180910390fd5b60025460008054906101000a900473ffffffffffffffffffffffffffffffffffffffff1673ffffffffffffffffffffffffffffffffffffffff1663dd62ed3e600160009054906101000a900473ffffffffffffffffffffffffffffffffffffffff16306040518363ffffffff1660e01b8152600401610320929190610808565b60206040518083038186803b15801561033857600080fd5b505afa15801561034c573d6000803e3d6000fd5b505050506040513d601f19601f820116820180604052508101906103709190610707565b10156103b1576040517f08c379a00000000000000000000000000000000000000000000000000000000081526004016103a8906108c3565b60405180910390fd5b600554600360009054906101000a900473ffffffffffffffffffffffffffffffffffffffff1673ffffffffffffffffffffffffffffffffffffffff1663dd62ed3e600460009054906101000a900473ffffffffffffffffffffffffffffffffffffffff16306040518363ffffffff1660e01b8152600401610433929190610808565b60206040518083038186803b15801561044b57600080fd5b505afa15801561045f573d6000803e3d6000fd5b505050506040513d601f19601f820116820180604052508101906104839190610707565b10156104c4576040517f08c379a00000000000000000000000000000000000000000000000000000000081526004016104bb90610883565b60405180910390fd5b61053660008054906101000a900473ffffffffffffffffffffffffffffffffffffffff16600160009054906101000a900473ffffffffffffffffffffffffffffffffffffffff16600460009054906101000a900473ffffffffffffffffffffffffffffffffffffffff166002546105d6565b6105aa600360009054906101000a900473ffffffffffffffffffffffffffffffffffffffff16600460009054906101000a900473ffffffffffffffffffffffffffffffffffffffff16600160009054906101000a900473ffffffffffffffffffffffffffffffffffffffff166005546105d6565b565b60008054906101000a900473ffffffffffffffffffffffffffffffffffffffff1681565b60025481565b60008473ffffffffffffffffffffffffffffffffffffffff166323b872dd8585856040518463ffffffff1660e01b815260040161061593929190610831565b602060405180830381600087803b15801561062f57600080fd5b505af1158015610643573d6000803e3d6000fd5b505050506040513d601f19601f8201168201806040525081019061066791906106da565b9050806106a9576040517f08c379a00000000000000000000000000000000000000000000000000000000081526004016106a0906108a3565b60405180910390fd5b5050505050565b6000815190506106bf81610a56565b92915050565b6000815190506106d481610a6d565b92915050565b6000602082840312156106f0576106ef6109ad565b5b60006106fe848285016106b0565b91505092915050565b60006020828403121561071d5761071c6109ad565b5b600061072b848285016106c5565b91505092915050565b61073d8161092f565b82525050565b61074c81610977565b82525050565b600061075f60198361091e565b915061076a826109b2565b602082019050919050565b600061078260158361091e565b915061078d826109db565b602082019050919050565b60006107a560198361091e565b91506107b082610a04565b602082019050919050565b60006107c8600e8361091e565b91506107d382610a2d565b602082019050919050565b6107e78161096d565b82525050565b60006020820190506108026000830184610734565b92915050565b600060408201905061081d6000830185610734565b61082a6020830184610734565b9392505050565b60006060820190506108466000830186610734565b6108536020830185610734565b61086060408301846107de565b949350505050565b600060208201905061087d6000830184610743565b92915050565b6000602082019050818103600083015261089c81610752565b9050919050565b600060208201905081810360008301526108bc81610775565b9050919050565b600060208201905081810360008301526108dc81610798565b9050919050565b600060208201905081810360008301526108fc816107bb565b9050919050565b600060208201905061091860008301846107de565b92915050565b600082825260208201905092915050565b600061093a8261094d565b9050919050565b60008115159050919050565b600073ffffffffffffffffffffffffffffffffffffffff82169050919050565b6000819050919050565b600061098282610989565b9050919050565b60006109948261099b565b9050919050565b60006109a68261094d565b9050919050565b600080fd5b7f546f6b656e203220616c6c6f77616e636520746f6f206c6f7700000000000000600082015250565b7f546f6b656e207472616e73666572206661696c65640000000000000000000000600082015250565b7f546f6b656e203120616c6c6f77616e636520746f6f206c6f7700000000000000600082015250565b7f4e6f7420617574686f72697a6564000000000000000000000000000000000000600082015250565b610a5f81610941565b8114610a6a57600080fd5b50565b610a768161096d565b8114610a8157600080fd5b5056fea2646970667358221220518d87f7bfd550c62954d31767c1dcfa0cb78517b97c25141706f43cfde1b7c664736f6c63430008070033",
  "immutableReferences": {},
  "source": "pragma solidity >=0.4.22 <0.9.0;\n\ninterface IERC20 {\n    function totalSupply() external view returns (uint);\n\n    function balanceOf(address account) external view returns (uint);\n\n    function transfer(address recipient, uint amount) external returns (bool);\n\n    function allowance(address owner, address spender) external view returns (uint);\n\n    function approve(address spender, uint amount) external returns (bool);\n\n    function transferFrom(\n        address sender,\n        address recipient,\n        uint amount\n    ) external returns (bool);\n\n    event Transfer(address indexed from, address indexed to, uint value);\n    event Approval(address indexed owner, address indexed spender, uint value);\n}\n\n/*\nHow to swap tokens\n\n1. Alice has 100 tokens from AliceCoin, which is a ERC20 token.\n2. Bob has 100 tokens from BobCoin, which is also a ERC20 token.\n3. Alice and Bob wants to trade 10 AliceCoin for 20 BobCoin.\n4. Alice or Bob deploys TokenSwap\n5. Alice appproves TokenSwap to withdraw 10 tokens from AliceCoin\n6. Bob appproves TokenSwap to withdraw 20 tokens from BobCoin\n7. Alice or Bob calls TokenSwap.swap()\n8. Alice and Bob traded tokens successfully.\n*/\n\ncontract TokenSwap {\n    IERC20 public token1;\n    address public owner1;\n    uint public amount1;\n    IERC20 public token2;\n    address public owner2;\n    uint public amount2;\n\n    constructor(\n        address _token1,\n        address _owner1,\n        uint _amount1,\n        address _token2,\n        address _owner2,\n        uint _amount2\n    ) {\n        token1 = IERC20(_token1);\n        owner1 = _owner1;\n        amount1 = _amount1;\n        token2 = IERC20(_token2);\n        owner2 = _owner2;\n        amount2 = _amount2;\n    }\n\n    function swap() public {\n        require(msg.sender == owner1 || msg.sender == owner2, \"Not authorized\");\n        require(\n            token1.allowance(owner1, address(this)) >= amount1,\n            \"Token 1 allowance too low\"\n        );\n        require(\n            token2.allowance(owner2, address(this)) >= amount2,\n            \"Token 2 allowance too low\"\n        );\n\n        _safeTransferFrom(token1, owner1, owner2, amount1);\n        _safeTransferFrom(token2, owner2, owner1, amount2);\n    }\n\n    function _safeTransferFrom(\n        IERC20 token,\n        address sender,\n        address recipient,\n        uint amount\n    ) private {\n        bool sent = token.transferFrom(sender, recipient, amount);\n        require(sent, \"Token transfer failed\");\n    }\n}",
  "sourcePath": "/Users/alitanveer/Desktop/ReactNative/appName/contracts/TokenSwap.sol",
  "compiler": {
    "name": "solc",
    "version": "0.8.7+commit.e28d00a7.Emscripten.clang"
  },
  "schemaVersion": "3.4.3",
  "updatedAt": "2021-08-31T13:09:46.149Z",
  "devdoc": {
    "kind": "dev",
    "methods": {},
    "version": 1
  },
  "userdoc": {
    "kind": "user",
    "methods": {},
    "version": 1
  }
}